:100000000C9462000C948A000C948A000C948A0070
:100010000C948A000C948A000C948A000C948A0038
:100020000C948A000C948A000C948A000C941E068E
:100030000C948A000C948A000C948A000C948A0018
:100040000C94D4050C948A000C948A000C948A00B9
:100050000C948A000C948A000C948A000C948A00F8
:100060000C948A000C948A000000000024002700F1
:100070002A0000000000250028002B0000000000DE
:1000800023002600290004040404040404040202DA
:100090000202020203030303030301020408102007
:1000A0004080010204081020010204081020000012
:1000B0000008000201000003040700000000000027
:1000C0000000450811241FBECFEFD8E0DEBFCDBF32
:1000D00011E0A0E0B1E0EAEBF2E102C005900D9280
:1000E000A239B107D9F722E0A2E9B1E001C01D921F
:1000F000A535B207E1F710E0C2E6D0E004C02197D1
:10010000FE010E944709C136D107C9F70E94DF06E8
:100110000C945B090C940000CF92DF92EF92FF9257
:10012000DC01A03282E0B8070CF03EC0B7FD06C08B
:10013000A53BB1052CF0A4EBB0E002C0A0E0B0E01C
:1001400080913B0228E830E06901C81AD10887FD98
:10015000D394CC0CDD1CCC0CDD1C0D2C000CEE085B
:10016000FF0880913C0228E532E0281B310987FD19
:100170003395220F331F220F331FA901330F660B54
:10018000770B9A01AB012C193D094E095F090E94BA
:10019000020924EB30E040E050E00E94D808C20E93
:1001A000D31EE41EF51ED60190913A029C3098F5BC
:1001B00080913B0248E850E0481B510987FD539568
:1001C000440F551F440F551FA417B5078CF080919D
:1001D0003C0228E532E0281B310987FD3395220FC8
:1001E000331F220F331FAD012A173B070CF4A9015F
:1001F00042505109440F551F2FB7F894892F90E0B2
:10020000FC01EE0FFF1F8E0F9F1FFC01EA5EFD4FEA
:10021000528341832FBFFF90EF90DF90CF900895DE
:1002200096E0899FD0011124A955BE4F90967C93EA
:100230006E935F9791E091969C93919790911302A2
:10024000E0911402F0911502992339F0309751F0A2
:10025000811108C08091C30104C0309719F05C96E9
:100260008C9109940895CF92DF92EF92FF920F93B1
:100270001F9396E0899FF0011124E955FE4F11A2CA
:10028000278D30A12130310539F158F02230310568
:1002900009F447C02330310509F04FC060E070E039
:1002A00044C0662309F449C061E070E00E94100177
:1002B0002FB7F8948091A3019091A401A091A5017A
:1002C000B091A6012FBF8093FF0190930002A093ED
:1002D0000102B093020231C09FB7F894C090A3010D
:1002E000D090A401E090A501F090A6019FBF0091DD
:1002F000FF01109100022091010230910202C01A08
:10030000D10AE20AF30A009111021091120220E0D0
:1003100030E00C151D052E053F0518F462E070E075
:1003200004C061110AC063E070E01F910F91FF905B
:10033000EF90DF90CF900C9410011F910F91FF90E0
:10034000EF90DF90CF900895833081F028F48130D2
:1003500099F08230A1F008958730A9F08830B9F083
:100360008430D1F4809180008F7D03C08091800023
:100370008F7780938000089584B58F7702C084B50D
:100380008F7D84BD08958091B0008F7703C08091E8
:10039000B0008F7D8093B0000895CF93DF93282F16
:1003A00030E0F901E255FF4F8491F901E656FF4F25
:1003B000D491F901EA57FF4FC491CC2391F08111F8
:1003C0000E94A401EC2FF0E0EE0FFF1FE458FF4F56
:1003D000A591B491EC91ED2381E090E021F480E0CF
:1003E00002C080E090E0DF91CF910895862F0C94B9
:1003F000CD011F93CF93DF93282F30E0F901E25511
:10040000FF4F8491F901E656FF4FD491F901EA5765
:10041000FF4FC491CC23C1F0162F81110E94A4017B
:10042000EC2FF0E0EE0FFF1FEE58FF4FA591B491B7
:100430009FB7F894111104C08C91D095D82302C0B5
:10044000EC91DE2BDC939FBFDF91CF911F9108953C
:10045000862F642F0C94F901CF93DF9390E0FC0179
:10046000E656FF4F2491FC01EA57FF4F8491882301
:1004700061F190E0880F991FFC01E859FF4FC59189
:10048000D491FC01EE58FF4FA591B491611109C0C0
:100490009FB7F8948881209582238883EC912E233E
:1004A0000BC0623061F49FB7F8948881322F309589
:1004B00083238883EC912E2B2C939FBF06C08FB78C
:1004C000F894E8812E2B28838FBFDF91CF91089578
:1004D000862F642F0C942C026F927F928F929F92A2
:1004E000AF92BF92CF92DF92EF92FF920F931F9342
:1004F000CF93DF9381E0809313028FB7F8944091FC
:10050000A3015091A4016091A5017091A6018FBF34
:100510008091030290910402A0910502B09106021D
:10052000481B590B6A0B7B0B80910F0290911002B4
:10053000A0E0B0E084179507A607B70708F0F0C061
:10054000C0E080910D02C81730F0712C812C912CE5
:100550005401839440C0E0910902F0910A02EC0F2B
:10056000F11D62E080810E942C02CF5FEACFC62D90
:10057000D0E0E0910902F0910A02EC0FFD1F8081AA
:100580000E94CD012496CC0FDD1FC955DE4F892B6B
:1005900009F04BC0888199818C299D299983888392
:1005A000639480910D02681610F3E0910B02F091B4
:1005B0000C02E00FF11F61E080810E94F90180913F
:1005C0000B0290910C02FC01E00FF11F60E08081B2
:1005D0000E942C02739480910E02781658F5072D14
:1005E00010E0E0910B02F0910C02E00FF11F61E0CE
:1005F00080810E942C02E0910B02F0910C02E00F2E
:10060000F11F60E080810E94F901D501C401072C2F
:1006100004C0880F991FAA1FBB1F0A94D2F76C0150
:100620007C01E094F094612CBCCF888199818E216B
:100630009F21B4CF27EAE22E21E0F22E83EE91E053
:10064000F7012FEF3FEF478D50A1452B21F4148E7A
:10065000368F258F11A236968E179F07A1F7C0E01F
:1006600096E0D92E80910D02C81758F5D0E00C2FD6
:1006700010E0000F111F01551E4F20910E02D217DE
:10068000F0F4F801408151810D2E02C05695479536
:100690000A94E2F7642F6170C29F900111242D0F1C
:1006A000311DE7EAF1E080E0A58DB68D2A173B0702
:1006B00009F456C08F5F36968A30B1F735C0CF5FE8
:1006C000D1CF80E0F70191A1911181E0F6E0EF0E2A
:1006D000F11C93EEE91691E0F906A1F79FB7F894A3
:1006E0004091A3015091A4016091A5017091A601D0
:1006F0009FBF4093030250930402609305027093DE
:100700000602882369F08091C801882349F080910E
:10071000C6019091C701019719F48091C3012AC0C5
:100720001092130280E026C040FF1CC0E7EAF1E00F
:1007300080E090E0448D411117C0E0910702F091F4
:100740000802E20FF31F4081D89EF001D99EF00D00
:100750001124E955FE4F448F368F258F10A2178E36
:100760000E943301DF5F89CF019636968A3091056A
:1007700009F7F8CFDF91CF911F910F91FF90EF9084
:10078000DF90CF90BF90AF909F908F907F906F90B1
:1007900008953FB7F89480919F019091A001A09196
:1007A000A101B091A20126B5A89B05C02F3F19F069
:1007B0000196A11DB11D3FBFBA2FA92F982F8827E1
:1007C000820F911DA11DB11DBC01CD0142E0660F3C
:1007D000771F881F991F4A95D1F708958F929F928E
:1007E000AF92BF92CF92DF92EF92FF926B017C01AA
:1007F0000E94C9034B015C01C114D104E104F1045E
:10080000F1F00E94C903DC01CB0188199909AA09FA
:10081000BB09883E9340A105B10570F321E0C21ADF
:10082000D108E108F10888EE880E83E0981EA11C2B
:10083000B11CC114D104E104F10419F7DDCFFF901C
:10084000EF90DF90CF90BF90AF909F908F900895E2
:10085000CF92DF92EF92FF920F931F93CF93DF938C
:100860006C017A018B01C0E0D0E0CE15DF0581F08C
:10087000D8016D918D01D601ED91FC910190F0812F
:10088000E02DC6010995892B11F02196EECF7E014E
:10089000C701DF91CF911F910F91FF90EF90DF90F3
:1008A000CF900895CF93DF93EC0160E08E810E949A
:1008B000F90161E08E810E94F90160E08E810E9461
:1008C000F9018BE891E00197F1F7DF91CF9108955D
:1008D000CF92DF92EF92FF920F931F93CF93DF930C
:1008E0006C017C0187E0E80EF11CC0E0D0E0062F2F
:1008F00010E0B8010C2E02C0759567950A94E2F7D6
:100900006170F70181917F010E94F9012196C43045
:10091000D10579F7C601DF91CF911F910F91FF901B
:10092000EF90DF90CF900C945204CF92DF92EF9231
:10093000FF920F931F93CF93DF93EC01F62E642F5A
:100940008C810E94F9018D818F3F19F060E00E9437
:10095000F9018F850F2D10E084FF25C06E0187E01F
:10096000C80ED11CE12CF12CB8010E2C02C07595DB
:1009700067950A94E2F76170F60181916F010E9418
:10098000F901FFEFEF1AFF0A88E0E816F10461F7BA
:10099000CE01DF91CF911F910F91FF90EF90DF90EB
:1009A000CF900C945204B80184E0759567958A95B0
:1009B000E1F7CE010E9468046F2DCE01DF91CF9147
:1009C0001F910F91FF90EF90DF90CF900C946804EF
:1009D00040E0682F8DE392E00C94950481E00E9442
:1009E000E8048BE39FE10197F1F70895CF93DF933C
:1009F000823028F090914C02986090934C02809342
:100A000050021092510280E48093520280E1809360
:100A1000530280E58093540261E0809141020E947C
:100A20002C02809142028F3F19F061E00E942C025B
:100A300061E0809143020E942C02CDE3D2E09E014E
:100A40002D53324080914C0284FD03C084E090E03D
:100A500002C088E090E02196281739072CF461E065
:100A60008E810E942C02EBCF8BE39DE00197F1F782
:100A700060E0809141020E94F90160E080914302B0
:100A80000E94F901809142028F3F19F060E00E94BC
:100A9000F90180914C0284FD20C063E08DE392E077
:100AA0000E946804CBE4D6E4CE010197F1F763E03D
:100AB0008DE392E00E9468042197F1F763E08DE3F3
:100AC00092E00E94680483E592E00197F1F762E00A
:100AD0008DE392E00E94680415C080620E94E804E1
:100AE0008BE496E40197F1F780914C0280620E94BA
:100AF000E80483E592E00197F1F780914C0280626F
:100B00000E94E80480914C0280620E94E80484E024
:100B100080934D028CE00E94E8040E94EE0482E083
:100B200080934E0286E0DF91CF910C94E80441E07F
:100B30000E94950481E090E00895089580E090E09F
:100B40000895CF93DF931092950110929401C09174
:100B50009401D0919501C53BD1057CF4CE010E9452
:100B60008C006FE070E080E090E00E94EE0325963C
:100B7000D0939501C0939401EACFDF91CF9108956E
:100B8000009769F0FC0101900020E9F73197AF016F
:100B9000481B590BBC018DE392E00C94280480E0C3
:100BA00090E008950E944D091F920F920FB60F9288
:100BB00011242F933F938F939F93AF93BF93809173
:100BC000A3019091A401A091A501B091A60130913B
:100BD0009E0123E0230F2D3720F40196A11DB11DA6
:100BE00005C026E8230F0296A11DB11D20939E018A
:100BF0008093A3019093A401A093A501B093A601B3
:100C000080919F019091A001A091A101B091A201BA
:100C10000196A11DB11D80939F019093A001A09307
:100C2000A101B093A201BF91AF919F918F913F918C
:100C30002F910F900FBE0F901F9018951F920F923B
:100C40000FB60F9211242F933F934F935F936F939F
:100C50007F938F939F93AF93BF93EF93FF93809175
:100C6000930187FF05C010928500109284001BC07D
:100C700020919301022E000C330B8091920190E0A1
:100C80002817390784F480919301082E000C990BE2
:100C9000FC01EE0FFF1F8E0F9F1FFC01EA5EFD4F50
:100CA000808186FD15C0809193018F5F80939301B1
:100CB00020919301022E000C330B8091920190E061
:100CC00028173907C4F4809193018C3064F113C064
:100CD00080919301082E000C990BFC01EE0FFF1F71
:100CE0008E0F9F1FFC01EA5EFD4F808160E08F73D5
:100CF0000E94F901D8CF80918400909185000496DC
:100D000080349C4918F480E49CE905C080918400FB
:100D100090918500049690938900809388008FEFCE
:100D2000809393013BC02091840030918500809195
:100D30009301082E000C990BFC01EE0FFF1F8E0F84
:100D40009F1FFC01EA5EFD4F81819281820F931FFC
:100D5000909389008093880080919301082E000C65
:100D6000990BFC01EE0FFF1F8E0F9F1FFC01EA5E27
:100D7000FD4F808186FF12C080919301082E000CE8
:100D8000990BFC01EE0FFF1F8E0F9F1FFC01EA5E07
:100D9000FD4F808161E08F730E94F901FF91EF9117
:100DA000BF91AF919F918F917F916F915F914F9183
:100DB0003F912F910F900FBE0F901F901895789430
:100DC00084B5826084BD84B5816084BD85B5826050
:100DD00085BD85B5816085BD80916E008160809301
:100DE0006E0010928100809181008260809381006A
:100DF000809181008160809381008091800081607A
:100E0000809380008091B10084608093B1008091D4
:100E1000B00081608093B00080917A0084608093FC
:100E20007A0080917A00826080937A0080917A00C3
:100E3000816080937A0080917A00806880937A0044
:100E40001092C10061E088E00E942C0280913A0279
:100E50008C3008F051C061E089E00E942C02809142
:100E60003A02E82FF0E09F01220F331FE20FF31F39
:100E7000EA5EFD4F9081907C9960908310923B02D6
:100E800010923C026CE00E943B099CE0899FB001FB
:100E9000112440E050E09B01240F351FF901EE0FB3
:100EA000FF1F2E0F3F1FF901EA5EFD4F908196FD57
:100EB00016C04F5F5F4F4C30510569F781110FC06D
:100EC0001092800082E08093810010928500109241
:100ED0008400B19A80916F00826080936F00E091EE
:100EE0003A02F0E0CF01880F991FE80FF91FEA5E80
:100EF000FD4F8081806480830E94A10582E00E9472
:100F0000F60481E391E00E94C005E0915002E230D6
:100F100010F4E15001C0E1E0F0E0E35CFD4F8489B2
:100F200080680E94E8048FE391E00E94C00560EDB4
:100F300077E080E090E00E94EE030E94EE0400E083
:100F400010E0DD24D39484EBE82EF12C80911A017B
:100F5000811116C00E946C02833209F08FC00E947A
:100F6000EE040E94A10581E591E00E94C00568EBB6
:100F70007BE080E090E00E94EE03D0921A017EC0F8
:100F8000E1E0809150028111E0E0E195F0E0E35C66
:100F9000FD4F848980680E94E80481E691E00E9408
:100FA000C0050E946C028823F9F0C0909D01CC2DF1
:100FB000D0E0CA56DE4F8883E0915002E23010F450
:100FC000E15001C0E1E0F0E0E35CFD4F84898C0D6D
:100FD00080680E94E80441E068818DE392E00E940D
:100FE0009504C394C0929D0180919D01863009F0C3
:100FF00045C063E171E086E991E00E945209892BC6
:1010000021F50E94EE04F0929501E0929401C091C6
:101010009401D0919501D7FD0FC0CE010E948C00A4
:101020006FE070E080E090E00E94EE032597D0939F
:101030009501C0939401EBCF81E791E00E94C00538
:1010400010921A0180919D0115C00E94EE0480E863
:1010500091E00E94C00568EE73E080E090E00E949D
:10106000EE03D0921A01EECFE82FF0E0EA56FE4FE1
:10107000108281508111F8CF10929D010115110548
:1010800009F464CF0E94000061CF809192018C30FE
:10109000A0F491E0980F9093920180933A0290E02F
:1010A000FC01EE0FFF1F8E0F9F1FFC01EA5EFD4F3C
:1010B00088EB9BE09283818303C08FEF80933A0299
:1010C0001092400210923F0289E291E090933E021A
:1010D00080933D028EE0809341028FEF8093420225
:1010E0008FE08093430280E18093440281E180930A
:1010F000450282E18093460283E180934702109289
:1011000048021092490210924A0210924B02109229
:101110004C0281E00E94F6041092A9011092AD01E8
:101120001092AC011092AE018FE191E09093A80172
:101130008093A701E7EAF1E0148E10A2178E11A2A6
:10114000369681E0E33EF807B9F783E091E09093AB
:101150000A028093090280E091E090930C02809350
:101160000B0284E080930D0283E080930E0287E0FF
:1011700091E090930802809307028AE090E09093B8
:10118000100280930F0284EF91E0909312028093FB
:101190001102109215021092140210920302109282
:1011A0000402109205021092060210921302089592
:1011B000052E97FB1EF400940E94EF0857FD07D000
:1011C0000E940A0907FC03D04EF40C94EF085095D6
:1011D0004095309521953F4F4F4F5F4F0895909523
:1011E0008095709561957F4F8F4F9F4F08950E9416
:1011F0002C09A59F900DB49F900DA49F800D911D6B
:1012000011240895B7FF0C94F7080E94F708821B79
:10121000930B0895A1E21A2EAA1BBB1BFD010DC062
:10122000AA1FBB1FEE1FFF1FA217B307E407F50796
:1012300020F0A21BB30BE40BF50B661F771F881F72
:10124000991F1A9469F760957095809590959B0108
:10125000AC01BD01CF010895A29FB001B39FC001B1
:10126000A39F700D811D1124911DB29F700D811DD2
:101270001124911D0895991B79E004C0991F9617B8
:1012800008F0961B881F7A95C9F780950895EE0F90
:10129000FF1F0590F491E02D099481E090E0F8940F
:1012A0000C945B09FB01DC018D9101908019011008
:0A12B000D9F3990B0895F894FFCFCD
:1012BA00050607010203043132333435363738392B
:1012CA002A302331323334353600010000000068F9
:1012DA00022802F60100000000970528049E059DD9
:1012EA0005204A616E73686572204B68616E002D35
:1012FA002D46697273742070726F6A6563742D2D3E
:10130A00002020446F6F7220697320636C6F7365CD
:10131A000020456E7465722050617373776F726432
:10132A00002020446F6F72206973204F70656E0031
:10133A00202057726F6E672050617373776F7264E3
:02134A000000A1
:00000001FF
